S02B000041546D65676133323850206465766963652064726976657273202D20646973706C61792064656D6FE1
S11300000C9434000C9451000C9451000C94620232
S11300100C9451000C9451000C9451000C94510018
S11300200C9451000C94EC020C9451000C94C802F2
S11300300C9451000C9451000C9451000C945100F8
S11300400C9451000C9451000C9451000C945100E8
S11300500C9451000C9451000C9451000C945100D8
S11300600C9451000C94510011241FBECFEFD8E022
S1130070DEBFCDBF11E0A0E0B1E0EAE5FAE002C0E6
S113008005900D92A230B107D9F721E0A2E0B1E0CA
S113009001C01D92A733B207E1F70E9410030C942C
S11300A02B050C940000FC01683080F460838BE223
S11300B090E09283818389E290E0948383838DE648
S11300C090E09683858382E0878325C088EF860F3E
S11300D0863078F4808385E290E09283818383E2A2
S11300E090E0948383838BE690E0968385831782E4
S11300F012C06E50663078F4608388E290E0928398
S1130100818386E290E0948383838CE690E09683F7
S1130110858381E08783A181B2812C9181E090E085
S1130120008002C0880F991F0A94E2F7822B8C93F7
S11301300895FC017894878121E030E0A90102C090
S1130140440F551F8A95E2F7CA01A8E6B0E09C91D6
S1130150892B8C93A581B6818C91008002C0220FDB
S1130160331F0A94E2F7282B2C9308958FEF8AB952
S113017087B1886087B98BB180688BB988B1886092
S113018088B920E030E040E85FE361E08EE091E090
S11301900E94710320E030E048EC52E462E082E027
S11301A091E00E9471030895EEE0F1E0A085B1852D
S11301B04C9121E030E0C901028402C0880F991FEC
S11301C00A94E2F7242F30E02823392381E0232BFB
S11301D009F480E00895E2E0F1E0A085B1854C9156
S11301E021E030E0C901028402C0880F991F0A94FB
S11301F0E2F7242F30E02823392381E0232B09F46C
S113020080E00895AEE0B1E01896ED91FC91199765
S1130210208181E090E01A960C9002C0880F991F0B
S11302200A94E2F7822B808308958EE091E00E9485
S1130230AC038BB180688BB988B1886088B90895A4
S11302400E94D400882319F00E94150108950E9489
S113025002010895282F80910001821790F02093C5
S11302601E0130910101822F632F0E941F0580938C
S11302701D01389F2019112420931C0180E090E077
S1130280089581E090E00895EEE0F1E080819181AD
S1130290A281B3810196A11DB11D80839183A283A4
S11302A0B383CF010E949603882309F4ACC081E094
S11302B090911A01911180E080931A01811156C026
S11302C088B1886088B980911D01811104C08BB107
S11302D080688BB908958BB18F778BB980911D019C
S11302E09BB190789BB9882301F1813001F1823070
S11302F001F1833001F1843001F1853001F1863060
S113030001F1873079F18830F1F08930F1F08A30E9
S1130310F1F08B30F1F08C30F1F08D30F1F08E3063
S1130320F1F08F30F1F481E71DC08FE31BC086E04C
S113033019C08BE517C08FE415C086E613C08DE69F
S113034011C08DE70FC08FE70DC08FE60BC087E7A4
S113035009C08CE707C089E305C08EE503C089E7BF
S113036001C080E09BB1892B8BB908958BB1806863
S11303708BB988B1877F88B980911C019BB1907833
S11303809BB9882301F1813001F1823001F183307E
S113039001F1843001F1853001F1863001F18730BB
S11303A079F18830F1F08930F1F08A30F1F08B3056
S11303B0F1F08C30F1F08D30F1F08E30F1F08F30BF
S11303C0F1F481E71DC08FE31BC086E019C08BE503
S11303D017C08FE415C086E613C08DE611C08DE703
S11303E00FC08FE70DC08FE60BC087E709C08CE70D
S11303F007C089E305C08EE503C089E701C080E03A
S11304009BB1892B8BB90895E2E0F1E08081918161
S1130410A281B3810196A11DB11D80839183A28322
S1130420B383CF010E9496038823E9F080911B01D6
S113043081110DC080911E0190910001891718F05F
S113044010921E0110C08F5F80931E010CC080911A
S11304501E01811105C08091000180931E0103C01B
S1130460815080931E0180911E010E942A010895EB
S113047081E090911B01911180E080931B0108950C
S1130480A2E0B1E01896ED91FC911997208181E0EA
S113049090E01A960C9002C0880F991F0A94E2F714
S11304A0822B8083089582E091E00E94AC0308953A
S11304B00E94EB00882319F00E94530208950E94C1
S11304C0400208951F920F920FB60F9211242F939A
S11304D03F934F935F936F937F938F939F93AF93C8
S11304E0BF93EF93FF93EFE2F1E0A381B4814C91CA
S11304F081E090E09C01008002C0220F331F0A9427
S1130500E2F7842F90E082239323892B19F00E9431
S113051058022DC0EFE1F1E0A381B4814C9181E058
S113052090E09C01008002C0220F331F0A94E2F77E
S1130530842F90E082239323892B19F00E943802A0
S113054016C0E7E2F1E0A381B4814C9181E090E030
S11305509C01008002C0220F331F0A94E2F7842F0B
S113056090E082239323892B11F00E942001FF91B4
S1130570EF91BF91AF919F918F917F916F915F9117
S11305804F913F912F910F900FBE0F901F90189590
S11305901F920F920FB60F9211242F933F934F93F4
S11305A05F936F937F938F939F93AF93BF93EF93D7
S11305B0FF930E944401FF91EF91BF91AF919F91EE
S11305C08F917F916F915F914F913F912F910F90F8
S11305D00FBE0F901F9018951F920F920FB60F9297
S11305E011242F933F934F935F936F937F938F9334
S11305F09F93AF93BF93EF93FF930E940402FF91E5
S1130600EF91BF91AF919F918F917F916F915F9186
S11306104F913F912F910F900FBE0F901F901895FF
S1130620F894E0E6F0E088E180838EE080837894BB
S11306308081877F8083F894A89584B7877F84BF5F
S113064078948081806480836BE08FE291E00E94E3
S113065053008FE291E00E9499006CE08FE191E0F9
S11306600E9453008FE191E00E9499006DE087E2BF
S113067091E00E94530087E291E00E9499000E9459
S1130680B600F894A89584B7877F84BF7894F9CF8F
S1130690FC018385811108C082E085BD8EE690E06F
S11306A09187808712861BC0813081F48AE0809311
S11306B0810080E091E090938900809388008FE628
S11306C090E09187808781E0828709C0823039F485
S11306D08093B10080E790E09187808712867894B8
S11306E008951F93CF93DF93EC01162FCA01B9012C
S11306F0188219821A821B822FE632E143E05EE3FC
S11307000E942D0420E030E040E05FE30E94C1033A
S11307100E949F046C837D838E839F831B87CE01FD
S11307200E944803DF91CF911F910895FC014081FD
S113073051816281738184819581A681B781481733
S113074059076A077B0730F01082118212821382E4
S113075081E0089580E00895FC01A085B1858C9125
S113076021E030E0028402C0220F331F0A94E2F732
S1130770209528232C9310821182128213820895CB
S11307805058BB27AA270E94D8030C94E5040E9462
S1130790D70438F00E94DE0420F039F49F3F19F4A6
S11307A026F40C94D4040EF4E095E7FB0C94CE04E8
S11307B0E92F0E94F60458F3BA17620773078407F7
S11307C0950720F079F4A6F50C9418050EF4E0953D
S11307D00B2EBA2FA02D0B01B90190010C01CA01F7
S11307E0A0011124FF27591B99F0593F50F4503EA2
S11307F068F11A16F040A22F232F342F4427585F94
S1130800F3CF469537952795A795F0405395C9F7AB
S11308107EF41F16BA0B620B730B840BBAF0915063
S1130820A1F0FF0FBB1F661F771F881FC2F70EC002
S1130830BA0F621F731F841F48F4879577956795D5
S1130840B795F7959E3F08F0B0CF9395880F08F0C1
S11308509927EE0F9795879508950E9441040C946B
S1130860E5040E94DE0458F00E94D70440F029F405
S11308705F3F29F00C94CE0451110C9419050C948B
S1130880D4040E94F60468F39923B1F3552391F339
S1130890951B550BBB27AA2762177307840738F0EB
S11308A09F5F5F4F220F331F441FAA1FA9F335D048
S11308B00E2E3AF0E0E832D091505040E695001CFC
S11308C0CAF72BD0FE2F29D0660F771F881FBB1FB6
S11308D0261737074807AB07B0E809F0BB0B802D94
S11308E0BF01FF2793585F4F3AF09E3F510578F0C0
S11308F00C94CE040C9419055F3FE4F3983ED4F3B2
S1130900869577956795B795F7959F5FC9F7880F93
S1130910911D9695879597F90895E1E0660F771FE5
S1130920881FBB1F621773078407BA0720F0621B76
S1130930730B840BBA0BEE1F88F7E09508950E94A1
S1130940FE0488F09F5798F0B92F9927B751B0F05B
S1130950E1F0660F771F881F991F1AF0BA95C9F73F
S113096014C0B13091F00E941805B1E008950C94C0
S11309701805672F782F8827B85F39F0B93FCCF373
S1130980869577956795B395D9F73EF490958095BC
S1130990709561957F4F8F4F9F4F089597F99F678B
S11309A080E870E060E008959FEF80EC08950024F3
S11309B00A941616170618060906089500240A94C0
S11309C012161306140605060895092E0394000C46
S11309D011F4882352F0BB0F40F4BF2B11F460FFD5
S11309E004C06F5F7F4F8F4F9F4F089557FD9058FE
S11309F0440F551F59F05F3F71F04795880F97FBDF
S1130A00991F61F09F3F79F0879508951216130698
S1130A101406551FF2CF4695F1DF08C016161706C7
S1130A201806991FF1CF86957105610508940895FC
S1130A30E894BB2766277727CB0197F90895991B7C
S1130A4079E004C0991F961708F0961B881F7A95C1
S10D0A50C9F780950895F894FFCFCC
S1050A5A630A29
S9030000FC
